:03000000020AC031
:0C0AC000787FE4F6D8FD758143020B0737
:100B4C00083B00009C5600009F4A08330001092C0A
:100B5C00000112D41023003D0900005B8D80007A47
:100B6C00120000989680012100012200014300C16F
:010B7C000276
:03000B00020BCC19
:100BCC00C0E0E5216401700CF521C28CF58CF58A2E
:090BDC00D20280020521D0E032B2
:03001B00020BE5F0
:100BE500C0E0E52264B7700CF522C28EF58DF58B59
:090BF500F54380020522D0E03234
:040B7E007FF47E0181
:100B8200E4FDFCC3ED9FEE6480F8EC6480985015A0
:100B9200E4FBFA0BBB00010ABA01F8BBF4F50DBD88
:050BA20000010C80DEE3
:010BA700222B
:100A04008F178E168D158C147F807E847D1E7C003E
:100A1400AB17AA16A915A814C3120BA84017AF2622
:100A2400AE25AD24AC23A814120BA85008D29412FE
:100A34000B7EC29422AF26AE25AD24AC23AB17AAFD
:100A440016A915A814C3120BA84017AF2AAE29ADD6
:100A540028AC27A814120BA85008D295120B7EC2FA
:100A64009522AF2AAE29AD28AC27AB17AA16A91533
:100A7400A814C3120BA84017AF2EAE2DAD2CAC2B6F
:100A8400A814120BA85008D296120B7EC29622AF5D
:100A94002EAE2DAD2CAC2BAB17AA16A915A814C3DA
:100AA400120BA84016AF32AE31AD30AC2FA81412E1
:0C0AB4000BA85007D297120B7EC29722AD
:10080000E4F513F512F511F51075891175A88A75BF
:1008100090033090FDD28C3090053002FA80F83091
:100820000204C20280ECC28CAF21E4FCFDFE781011
:10083000120BB9E4F50BF50AEDF509E4F508AF8CF8
:10084000FCFDFE7808120BB9E4FDFC250BF50BE569
:100850000A3EF50AED3509F509EC3508F508AF8AC9
:10086000E4FEE50B2FF50BEE350AF50AED3509F53B
:1008700009EC3508F508E4F521F58CF58A309192FC
:10088000D28C3091053002FA80F8300204C2028026
:1008900081C28CAF21E4FCFDFE7810120BB9E4F5A7
:1008A0000FF50EEDF50DE4F50CAF8CFCFDFE7808B0
:1008B000120BB9E4FDFC250FF50FE50E3EF50EED2C
:1008C000350DF50DEC350CF50CAF8AE4FEE50F2F78
:1008D000F50FEE350EF50EED350DF50DEC350CF58D
:1008E0000CE4F521F58CF58AAF3EAE3DAD3CAC3B5A
:1008F000AB0BAA0AA909A808C3120BA84012AF4261
:10090000AE41AD40AC3FA808D3120BA85002800105
:10091000C39200AF36AE35AD34AC33AB0FAA0EA9DF
:100920000DA80CC3120BA84012AF3AAE39AD38ACCB
:1009300037A80CD3120BA850028001C392012000EB
:1009400003020812200103020812D292120B7EC287
:1009500092AF431EEF70070543D28E020812EF6478
:10096000014E6003020812C28EAF22FCFDFE781019
:10097000120BB9E4F513F512EDF511E4F510AF8D96
:10098000FCFDFE7808120BB9E4FDFC2513F513E518
:10099000123EF512ED3511F511EC3510F510AF8B57
:1009A000E4FEE5132FF513EE3512F512ED3511F5D2
:1009B00011EC3510F510E50B250FFFE50A350EFE9D
:1009C000E509350DFDE508350CFCEF24FDFBEE34A3
:1009D000F6FAED3416F9E43CF8C3E5139BF513E59C
:1009E000129AF512E51199F511E51098F510AF136B
:1009F000AE12AD11FC120A04E4F543F522F58DF5B3
:040A00008B0208124B
:100ACC00020800E493A3F8E493A34003F68001F238
:100ADC0008DFF48029E493A3F85407240CC8C3332B
:100AEC00C4540F4420C8834004F456800146F6DFFA
:100AFC00E4800B0102040810204080900B4CE47E33
:100B0C00019360BCA3FF543F30E509541FFEE493EE
:100B1C00A360010ECF54C025E060A840B8E493A3B5
:100B2C00FAE493A3F8E493A3C8C582C8CAC583CAE0
:100B3C00F0A3C8C582C8CAC583CADFE9DEE780BE98
:010B7D000077
:100BA800EB9FF5F0EA9E42F0E99D42F0E89C45F0A3
:010BB800221A
:100BB900E8600FEFC333FFEE33FEED33FDEC33FC9A
:030BC900D8F1223E
:00000001FF
